{
  "contractName": "Device",
  "abi": [
    {
      "inputs": [
        {
          "internalType": "string",
          "name": "_name",
          "type": "string"
        },
        {
          "internalType": "string",
          "name": "_owner",
          "type": "string"
        },
        {
          "internalType": "string",
          "name": "_location",
          "type": "string"
        }
      ],
      "payable": false,
      "stateMutability": "nonpayable",
      "type": "constructor"
    },
    {
      "constant": true,
      "inputs": [],
      "name": "location",
      "outputs": [
        {
          "internalType": "string",
          "name": "",
          "type": "string"
        }
      ],
      "payable": false,
      "stateMutability": "view",
      "type": "function"
    },
    {
      "constant": true,
      "inputs": [],
      "name": "name",
      "outputs": [
        {
          "internalType": "string",
          "name": "",
          "type": "string"
        }
      ],
      "payable": false,
      "stateMutability": "view",
      "type": "function"
    },
    {
      "constant": true,
      "inputs": [],
      "name": "owner",
      "outputs": [
        {
          "internalType": "string",
          "name": "",
          "type": "string"
        }
      ],
      "payable": false,
      "stateMutability": "view",
      "type": "function"
    },
    {
      "constant": true,
      "inputs": [],
      "name": "state",
      "outputs": [
        {
          "internalType": "int256",
          "name": "",
          "type": "int256"
        }
      ],
      "payable": false,
      "stateMutability": "view",
      "type": "function"
    },
    {
      "constant": false,
      "inputs": [
        {
          "internalType": "string",
          "name": "_name",
          "type": "string"
        },
        {
          "internalType": "string",
          "name": "_owner",
          "type": "string"
        },
        {
          "internalType": "string",
          "name": "_location",
          "type": "string"
        }
      ],
      "name": "modify",
      "outputs": [],
      "payable": false,
      "stateMutability": "nonpayable",
      "type": "function"
    },
    {
      "constant": true,
      "inputs": [],
      "name": "getInfo",
      "outputs": [
        {
          "internalType": "string",
          "name": "_name",
          "type": "string"
        },
        {
          "internalType": "string",
          "name": "_owner",
          "type": "string"
        },
        {
          "internalType": "string",
          "name": "_location",
          "type": "string"
        },
        {
          "internalType": "int256",
          "name": "_state",
          "type": "int256"
        }
      ],
      "payable": false,
      "stateMutability": "view",
      "type": "function"
    },
    {
      "constant": false,
      "inputs": [],
      "name": "checkout",
      "outputs": [],
      "payable": false,
      "stateMutability": "nonpayable",
      "type": "function"
    },
    {
      "constant": false,
      "inputs": [],
      "name": "requestCheckin",
      "outputs": [],
      "payable": false,
      "stateMutability": "nonpayable",
      "type": "function"
    },
    {
      "constant": false,
      "inputs": [],
      "name": "checkin",
      "outputs": [],
      "payable": false,
      "stateMutability": "nonpayable",
      "type": "function"
    }
  ],
  "bytecode": "0x60806040523480156200001157600080fd5b5060405162000e7338038062000e73833981810160405260608110156200003757600080fd5b81019080805160405193929190846401000000008211156200005857600080fd5b838201915060208201858111156200006f57600080fd5b82518660018202830111640100000000821117156200008d57600080fd5b8083526020830192505050908051906020019080838360005b83811015620000c3578082015181840152602081019050620000a6565b50505050905090810190601f168015620000f15780820380516001836020036101000a031916815260200191505b50604052602001805160405193929190846401000000008211156200011557600080fd5b838201915060208201858111156200012c57600080fd5b82518660018202830111640100000000821117156200014a57600080fd5b8083526020830192505050908051906020019080838360005b838110156200018057808201518184015260208101905062000163565b50505050905090810190601f168015620001ae5780820380516001836020036101000a031916815260200191505b5060405260200180516040519392919084640100000000821115620001d257600080fd5b83820191506020820185811115620001e957600080fd5b82518660018202830111640100000000821117156200020757600080fd5b8083526020830192505050908051906020019080838360005b838110156200023d57808201518184015260208101905062000220565b50505050905090810190601f1680156200026b5780820380516001836020036101000a031916815260200191505b5060405250505082600090805190602001906200028a929190620002ce565b508160019080519060200190620002a3929190620002ce565b508060029080519060200190620002bc929190620002ce565b5060016003819055505050506200037d565b828054600181600116156101000203166002900490600052602060002090601f016020900481019282601f106200031157805160ff191683800117855562000342565b8280016001018555821562000342579182015b828111156200034157825182559160200191906001019062000324565b5b50905062000351919062000355565b5090565b6200037a91905b80821115620003765760008160009055506001016200035c565b5090565b90565b610ae6806200038d6000396000f3fe608060405234801561001057600080fd5b50600436106100935760003560e01c8063516f279e11610066578063516f279e146103185780635a9b0b891461039b5780638da5cb5b146104fd578063baeb071814610580578063c19d93fb1461058a57610093565b806306099d691461009857806306fdde03146100a25780631c5c4b0d1461012557806329d6a9e91461012f575b600080fd5b6100a06105a8565b005b6100aa6105c1565b6040518080602001828103825283818151815260200191508051906020019080838360005b838110156100ea5780820151818401526020810190506100cf565b50505050905090810190601f1680156101175780820380516001836020036101000a031916815260200191505b509250505060405180910390f35b61012d61065f565b005b6103166004803603606081101561014557600080fd5b810190808035906020019064010000000081111561016257600080fd5b82018360208201111561017457600080fd5b8035906020019184600183028401116401000000008311171561019657600080fd5b91908080601f016020809104026020016040519081016040528093929190818152602001838380828437600081840152601f19601f820116905080830192505050505050509192919290803590602001906401000000008111156101f957600080fd5b82018360208201111561020b57600080fd5b8035906020019184600183028401116401000000008311171561022d57600080fd5b91908080601f016020809104026020016040519081016040528093929190818152602001838380828437600081840152601f19601f8201169050808301925050505050505091929192908035906020019064010000000081111561029057600080fd5b8201836020820111156102a257600080fd5b803590602001918460018302840111640100000000831117156102c457600080fd5b91908080601f016020809104026020016040519081016040528093929190818152602001838380828437600081840152601f19601f820116905080830192505050505050509192919290505050610677565b005b6103206106c1565b6040518080602001828103825283818151815260200191508051906020019080838360005b83811015610360578082015181840152602081019050610345565b50505050905090810190601f16801561038d5780820380516001836020036101000a031916815260200191505b509250505060405180910390f35b6103a361075f565b60405180806020018060200180602001858152602001848103845288818151815260200191508051906020019080838360005b838110156103f15780820151818401526020810190506103d6565b50505050905090810190601f16801561041e5780820380516001836020036101000a031916815260200191505b50848103835287818151815260200191508051906020019080838360005b8381101561045757808201518184015260208101905061043c565b50505050905090810190601f1680156104845780820380516001836020036101000a031916815260200191505b50848103825286818151815260200191508051906020019080838360005b838110156104bd5780820151818401526020810190506104a2565b50505050905090810190601f1680156104ea5780820380516001836020036101000a031916815260200191505b5097505050505050505060405180910390f35b610505610950565b6040518080602001828103825283818151815260200191508051906020019080838360005b8381101561054557808201518184015260208101905061052a565b50505050905090810190601f1680156105725780820380516001836020036101000a031916815260200191505b509250505060405180910390f35b6105886109ee565b005b610592610a06565b6040518082815260200191505060405180910390f35b6001600354146105b757600080fd5b6002600381905550565b60008054600181600116156101000203166002900480601f0160208091040260200160405190810160405280929190818152602001828054600181600116156101000203166002900480156106575780601f1061062c57610100808354040283529160200191610657565b820191906000526020600020905b81548152906001019060200180831161063a57829003601f168201915b505050505081565b60026003541461066e57600080fd5b60038081905550565b826000908051906020019061068d929190610a0c565b5081600190805190602001906106a4929190610a0c565b5080600290805190602001906106bb929190610a0c565b50505050565b60028054600181600116156101000203166002900480601f0160208091040260200160405190810160405280929190818152602001828054600181600116156101000203166002900480156107575780601f1061072c57610100808354040283529160200191610757565b820191906000526020600020905b81548152906001019060200180831161073a57829003601f168201915b505050505081565b606080606060008060016002600354838054600181600116156101000203166002900480601f0160208091040260200160405190810160405280929190818152602001828054600181600116156101000203166002900480156108035780601f106107d857610100808354040283529160200191610803565b820191906000526020600020905b8154815290600101906020018083116107e657829003601f168201915b50505050509350828054600181600116156101000203166002900480601f01602080910402602001604051908101604052809291908181526020018280546001816001161561010002031660029004801561089f5780601f106108745761010080835404028352916020019161089f565b820191906000526020600020905b81548152906001019060200180831161088257829003601f168201915b50505050509250818054600181600116156101000203166002900480601f01602080910402602001604051908101604052809291908181526020018280546001816001161561010002031660029004801561093b5780601f106109105761010080835404028352916020019161093b565b820191906000526020600020905b81548152906001019060200180831161091e57829003601f168201915b50505050509150935093509350935090919293565b60018054600181600116156101000203166002900480601f0160208091040260200160405190810160405280929190818152602001828054600181600116156101000203166002900480156109e65780601f106109bb576101008083540402835291602001916109e6565b820191906000526020600020905b8154815290600101906020018083116109c957829003601f168201915b505050505081565b60038054146109fc57600080fd5b6001600381905550565b60035481565b828054600181600116156101000203166002900490600052602060002090601f016020900481019282601f10610a4d57805160ff1916838001178555610a7b565b82800160010185558215610a7b579182015b82811115610a7a578251825591602001919060010190610a5f565b5b509050610a889190610a8c565b5090565b610aae91905b80821115610aaa576000816000905550600101610a92565b5090565b9056fea265627a7a72315820e7092f82af85209b799573588dda31f0df6987fb7c49098c26e1f29d9fba65ac64736f6c63430005100032",
  "source": "pragma solidity ^0.5.0;\r\n\r\n// Inventory management interface\r\ninterface InventoryManagement {\r\n    \r\n    function list() external returns(               // List devices in inventory\r\n        int[] memory deviceIDs\r\n    );\r\n    \r\n    function add(                                   // Add device to inventory\r\n        string calldata name,\r\n        string calldata owner,\r\n        string calldata location\r\n    ) external;\r\n    \r\n    function remove(                                // Remove device from inventory\r\n        int deviceID\r\n    ) external;\r\n    \r\n    function modify(                                // Modify device info\r\n        int deviceID,\r\n        string calldata newName,\r\n        string calldata newOwner,\r\n        string calldata newLocation\r\n    ) external;\r\n    \r\n    function lookUp(                                // Look up device info\r\n        int deviceID\r\n    ) external view returns(\r\n        string memory name,\r\n        string memory owner,\r\n        string memory location,\r\n        int state                                   // State 1=inStore, 2=checkedOut, 3=pending\r\n    );\r\n    \r\n    function checkout(                              // Checkout device from inventory\r\n        int deviceID\r\n    ) external;\r\n    \r\n    function requestCheckin(                        // Request device checkin\r\n        int deviceID\r\n    ) external;\r\n    \r\n    function checkin(                               // Checkin device into inventory\r\n        int deviceID\r\n    ) external;\r\n}\r\n\r\n\r\n// Inventory interactions\r\ncontract Inventory is InventoryManagement {\r\n    \r\n    address public inventoryManager;                // Address of inventory manager\r\n    mapping(int => Device) public inventory;        // Device inventory\r\n    int public deviceID;                            // Next device ID\r\n    int public deviceNum;                           // Number of existing devices\r\n    int[] public removedID;                         // List of removed device IDs\r\n    int[] public existingID;                        // List of existing device IDs\r\n\r\n    modifier isManager() {                          // Check if caller is manager\r\n        require(msg.sender == inventoryManager);\r\n        _;\r\n    }\r\n\r\n    event deviceInfo(                               // List info of devices\r\n        int id,\r\n        string name,\r\n        string owner,\r\n        string location,\r\n        int state\r\n    );\r\n\r\n    constructor() public {                          // Set caller as manager\r\n        inventoryManager = msg.sender;\r\n    }\r\n    \r\n    function validateID(int _deviceID) public view returns(bool) {      // Validate device ID\r\n        bool valid;\r\n        \r\n        if(_deviceID >= deviceID || deviceID == 0) {\r\n            valid = false;\r\n        } else if(deviceID == deviceNum) {\r\n            valid = true;\r\n        } else {\r\n            for(int i=0; i<deviceID-deviceNum; i++) {                   // Check if device ID has not been removed\r\n                if(_deviceID == removedID[uint(i)]) {\r\n                    valid = false;\r\n                    break;\r\n                }\r\n                valid = true;\r\n            }\r\n        }\r\n        \r\n        return valid;\r\n    }\r\n\r\n    function list() public returns(int[] memory deviceIDs) {            // List devices in inventory\r\n        delete existingID;\r\n        \r\n        for(int i=0; i<deviceID; i++) {                                 // Emit info and return ID of existing devices\r\n            if(validateID(i)) {\r\n                emit deviceInfo(\r\n                    i,\r\n                    inventory[i].name(),\r\n                    inventory[i].owner(),\r\n                    inventory[i].location(),\r\n                    inventory[i].state()\r\n                );\r\n                existingID.push(i);\r\n            }\r\n        }\r\n        return existingID;\r\n    }\r\n\r\n    function add(                                                       // Add device to inventory\r\n        string memory _name,\r\n        string memory _owner,\r\n        string memory _location\r\n    ) public isManager {\r\n        inventory[deviceID] = new Device(_name, _owner, _location);\r\n        deviceID++;\r\n        deviceNum++;\r\n    }\r\n    \r\n    function remove(int _deviceID) public isManager {                   // Remove device from inventory\r\n        require(validateID(_deviceID));\r\n        delete inventory[_deviceID];\r\n        removedID.push(_deviceID);\r\n        deviceNum--;\r\n    }\r\n    \r\n    function modify(                                                    // Modify device in inventory\r\n        int _deviceID,\r\n        string memory newName,\r\n        string memory newOwner,\r\n        string memory newLocation\r\n    ) public isManager {\r\n        require(validateID(_deviceID));\r\n        inventory[_deviceID].modify(newName, newOwner, newLocation);\r\n    }\r\n    \r\n    function lookUp(int _deviceID) public view returns(                 // Look up device in inventory\r\n        string memory name,\r\n        string memory owner,\r\n        string memory location,\r\n        int state\r\n    ) {\r\n        require(validateID(_deviceID));\r\n        return(inventory[_deviceID].getInfo());\r\n    }\r\n    \r\n    function checkout(int _deviceID) public isManager {                 // Checkout device from inventory\r\n        require(validateID(_deviceID));\r\n        inventory[_deviceID].checkout();\r\n    }\r\n    \r\n    function requestCheckin(int _deviceID) public {                     // Request device checkin\r\n        require(validateID(_deviceID));\r\n        inventory[_deviceID].requestCheckin();\r\n    }\r\n    \r\n    function checkin(int _deviceID) public isManager {                  // Checkin device into inventory\r\n        require(validateID(_deviceID));\r\n        inventory[_deviceID].checkin();\r\n    }\r\n}\r\n\r\n\r\n// Device interactions\r\ncontract Device {\r\n    \r\n    string public name;                             // Name/type of device\r\n    string public owner;                            // Owner of device\r\n    string public location;                         // Location of device\r\n    int public state;                               // State of device  1=inStore, 2=checkedOut, 3=pending\r\n\r\n    constructor(                                    // Create device with given name, owner and location\r\n        string memory _name,\r\n        string memory _owner,\r\n        string memory _location\r\n    ) public {\r\n        name = _name;\r\n        owner = _owner;\r\n        location = _location;\r\n        state = 1;\r\n    }\r\n    \r\n    function modify(                                // Modify device info\r\n        string memory _name,\r\n        string memory _owner,\r\n        string memory _location\r\n    ) public {\r\n        name = _name;\r\n        owner = _owner;\r\n        location = _location;\r\n    }\r\n    \r\n    function getInfo() public view returns(         // Get device info\r\n        string memory _name,\r\n        string memory _owner,\r\n        string memory _location,\r\n        int _state\r\n    ) {\r\n        return(name, owner, location, state);\r\n    }\r\n    \r\n    function checkout() public {                    // Checkout device\r\n        require(state == 1);\r\n        state = 2;\r\n    }\r\n    \r\n    function requestCheckin() public {              // Request device checkin\r\n        require(state == 2);\r\n        state = 3;\r\n    }\r\n    \r\n    function checkin() public {                     // Checkin device\r\n        require(state == 3);\r\n        state = 1;\r\n    }\r\n}",
  "sourcePath": "C:\\Users\\Joseph\\Documents\\Work\\2020\\Semester 1\\Advanced Topics in CS\\Truffle\\contracts\\InventorySystem.sol",
  "compiler": {
    "name": "solc",
    "version": "0.5.16+commit.9c3226ce.Emscripten.clang"
  },
  "schemaVersion": "3.0.23",
  "updatedAt": "2020-06-04T08:32:25.057Z",
  "devdoc": {
    "methods": {}
  },
  "userdoc": {
    "methods": {}
  }
}